{
  "_format": "hh-sol-artifact-1",
  "contractName": "Token",
  "sourceName": "contracts/Token.sol",
  "abi": [
    {
      "inputs": [
        {
          "internalType": "address",
          "name": "owner",
          "type": "address"
        },
        {
          "internalType": "address",
          "name": "spender",
          "type": "address"
        }
      ],
      "name": "allowance",
      "outputs": [
        {
          "internalType": "uint256",
          "name": "",
          "type": "uint256"
        }
      ],
      "stateMutability": "view",
      "type": "function"
    },
    {
      "inputs": [
        {
          "internalType": "address",
          "name": "spender",
          "type": "address"
        },
        {
          "internalType": "uint256",
          "name": "value",
          "type": "uint256"
        }
      ],
      "name": "approve",
      "outputs": [
        {
          "internalType": "bool",
          "name": "",
          "type": "bool"
        }
      ],
      "stateMutability": "nonpayable",
      "type": "function"
    },
    {
      "inputs": [
        {
          "internalType": "address",
          "name": "",
          "type": "address"
        }
      ],
      "name": "balanceOf",
      "outputs": [
        {
          "internalType": "uint256",
          "name": "",
          "type": "uint256"
        }
      ],
      "stateMutability": "view",
      "type": "function"
    },
    {
      "inputs": [
        {
          "internalType": "address payable",
          "name": "dest",
          "type": "address"
        }
      ],
      "name": "burn",
      "outputs": [],
      "stateMutability": "nonpayable",
      "type": "function"
    },
    {
      "inputs": [],
      "name": "decimals",
      "outputs": [
        {
          "internalType": "uint256",
          "name": "",
          "type": "uint256"
        }
      ],
      "stateMutability": "view",
      "type": "function"
    },
    {
      "inputs": [],
      "name": "getNumTokenHolders",
      "outputs": [
        {
          "internalType": "uint256",
          "name": "",
          "type": "uint256"
        }
      ],
      "stateMutability": "view",
      "type": "function"
    },
    {
      "inputs": [
        {
          "internalType": "uint256",
          "name": "index",
          "type": "uint256"
        }
      ],
      "name": "getTokenHolder",
      "outputs": [
        {
          "internalType": "address",
          "name": "",
          "type": "address"
        }
      ],
      "stateMutability": "view",
      "type": "function"
    },
    {
      "inputs": [
        {
          "internalType": "address",
          "name": "payee",
          "type": "address"
        }
      ],
      "name": "getWithdrawableDividend",
      "outputs": [
        {
          "internalType": "uint256",
          "name": "",
          "type": "uint256"
        }
      ],
      "stateMutability": "view",
      "type": "function"
    },
    {
      "inputs": [],
      "name": "mint",
      "outputs": [],
      "stateMutability": "payable",
      "type": "function"
    },
    {
      "inputs": [],
      "name": "name",
      "outputs": [
        {
          "internalType": "string",
          "name": "",
          "type": "string"
        }
      ],
      "stateMutability": "view",
      "type": "function"
    },
    {
      "inputs": [],
      "name": "recordDividend",
      "outputs": [],
      "stateMutability": "payable",
      "type": "function"
    },
    {
      "inputs": [],
      "name": "symbol",
      "outputs": [
        {
          "internalType": "string",
          "name": "",
          "type": "string"
        }
      ],
      "stateMutability": "view",
      "type": "function"
    },
    {
      "inputs": [],
      "name": "totalSupply",
      "outputs": [
        {
          "internalType": "uint256",
          "name": "",
          "type": "uint256"
        }
      ],
      "stateMutability": "view",
      "type": "function"
    },
    {
      "inputs": [
        {
          "internalType": "address",
          "name": "to",
          "type": "address"
        },
        {
          "internalType": "uint256",
          "name": "value",
          "type": "uint256"
        }
      ],
      "name": "transfer",
      "outputs": [
        {
          "internalType": "bool",
          "name": "",
          "type": "bool"
        }
      ],
      "stateMutability": "nonpayable",
      "type": "function"
    },
    {
      "inputs": [
        {
          "internalType": "address",
          "name": "from",
          "type": "address"
        },
        {
          "internalType": "address",
          "name": "to",
          "type": "address"
        },
        {
          "internalType": "uint256",
          "name": "value",
          "type": "uint256"
        }
      ],
      "name": "transferFrom",
      "outputs": [
        {
          "internalType": "bool",
          "name": "",
          "type": "bool"
        }
      ],
      "stateMutability": "nonpayable",
      "type": "function"
    },
    {
      "inputs": [
        {
          "internalType": "address payable",
          "name": "dest",
          "type": "address"
        }
      ],
      "name": "withdrawDividend",
      "outputs": [],
      "stateMutability": "nonpayable",
      "type": "function"
    }
  ],
  "bytecode": "0x601260015560c0604052600a6080819052692a32b9ba103a37b5b2b760b11b60a0908152610030916002919061006f565b5060408051808201909152600480825263151154d560e21b602090920191825261005c9160039161006f565b5034801561006957600080fd5b50610102565b828054600181600116156101000203166002900490600052602060002090601f016020900481019282601f106100b057805160ff19168380011785556100dd565b828001600101855582156100dd579182015b828111156100dd5782518255916020019190600101906100c2565b506100e99291506100ed565b5090565b5b808211156100e957600081556001016100ee565b610e30806101116000396000f3fe6080604052600436106100f35760003560e01c806389afcb441161008a578063a4138b9b11610059578063a4138b9b14610323578063a9059cbb14610356578063ca55954c1461038f578063dd62ed3e146103d5576100f3565b806389afcb441461029357806395d89b41146102c65780639c53c0ca146102db578063a0ced69d1461030e576100f3565b806323b872dd116100c657806323b872dd14610200578063313ce5671461024357806350ca75551461025857806370a0823114610260576100f3565b806306fdde03146100f8578063095ea7b3146101825780631249c58b146101cf57806318160ddd146101d9575b600080fd5b34801561010457600080fd5b5061010d610410565b6040805160208082528351818301528351919283929083019185019080838360005b8381101561014757818101518382015260200161012f565b50505050905090810190601f1680156101745780820380516001836020036101000a031916815260200191505b509250505060405180910390f35b34801561018e57600080fd5b506101bb600480360360408110156101a557600080fd5b506001600160a01b03813516906020013561049b565b604080519115158252519081900360200190f35b6101d76104ca565b005b3480156101e557600080fd5b506101ee610527565b60408051918252519081900360200190f35b34801561020c57600080fd5b506101bb6004803603606081101561022357600080fd5b506001600160a01b0381358116916020810135909116906040013561052d565b34801561024f57600080fd5b506101ee610697565b6101d761069d565b34801561026c57600080fd5b506101ee6004803603602081101561028357600080fd5b50356001600160a01b0316610760565b34801561029f57600080fd5b506101d7600480360360208110156102b657600080fd5b50356001600160a01b0316610772565b3480156102d257600080fd5b5061010d6107f0565b3480156102e757600080fd5b506101d7600480360360208110156102fe57600080fd5b50356001600160a01b031661084b565b34801561031a57600080fd5b506101ee6108aa565b34801561032f57600080fd5b506101ee6004803603602081101561034657600080fd5b50356001600160a01b03166108b0565b34801561036257600080fd5b506101bb6004803603604081101561037957600080fd5b506001600160a01b0381351690602001356108cf565b34801561039b57600080fd5b506103b9600480360360208110156103b257600080fd5b50356109a9565b604080516001600160a01b039092168252519081900360200190f35b3480156103e157600080fd5b506101ee600480360360408110156103f857600080fd5b506001600160a01b03813581169160200135166109f1565b6002805460408051602060018416156101000260001901909316849004601f810184900484028201840190925281815292918301828280156104935780601f1061046857610100808354040283529160200191610493565b820191906000526020600020905b81548152906001019060200180831161047657829003601f168201915b505050505081565b3360009081526005602090815260408083206001600160a01b0386168452909152902081905560015b92915050565b600034116104d757600080fd5b336000908152600460205260409020548015906104f49034610a1c565b33600090815260046020526040812091909155546105129034610a1c565b60005580156105245761052433610a7d565b50565b60005481565b6001600160a01b03831660009081526004602052604081205482111561055257600080fd5b6001600160a01b038416600090815260056020908152604080832033845290915290205482111561058257600080fd5b6001600160a01b03841660009081526005602090815260408083203384529091529020546105b09083610af6565b6001600160a01b03808616600081815260056020908152604080832033845282528083209590955591815260049091528281205491861681529182205490841491901580156105ff5750600084115b6001600160a01b0387166000908152600460205260409020549091506106259085610af6565b6001600160a01b0380881660009081526004602052604080822093909355908716815220546106549085610a1c565b6001600160a01b038616600090815260046020526040902055801561067c5761067c85610a7d565b811561068b5761068b86610b38565b50600195945050505050565b60015481565b600034116106aa57600080fd5b6000546106b65761075e565b60005b600754811015610524576000600782815481106106d257fe5b600091825260208083209091015482546001600160a01b03909116808452600490925260408320549193506107129161070c903490610c42565b90610c9b565b6001600160a01b0383166000908152600660205260409020549091506107389082610a1c565b6001600160a01b03909216600090815260066020526040902091909155506001016106b9565b565b60046020526000908152604090205481565b336000908152600460205260409020548061078c57600080fd5b336000908152600460205260408120819055546107a99082610af6565b6000556107b533610b38565b6040516001600160a01b0383169082156108fc029083906000818181858888f193505050501580156107eb573d6000803e3d6000fd5b505050565b6003805460408051602060026001851615610100026000190190941693909304601f810184900484028201840190925281815292918301828280156104935780601f1061046857610100808354040283529160200191610493565b336000908152600660205260409020548061086557600080fd5b33600090815260066020526040808220829055516001600160a01b0384169183156108fc02918491818181858888f193505050501580156107eb573d6000803e3d6000fd5b60075490565b6001600160a01b0381166000908152600660205260409020545b919050565b336000908152600460205260408120548211156108eb57600080fd5b33600090815260046020526040808220546001600160a01b038616835290822054908414919015801561091e5750600084115b3360009081526004602052604090205490915061093b9085610af6565b33600090815260046020526040808220929092556001600160a01b038716815220546109679085610a1c565b6001600160a01b038616600090815260046020526040902055801561098f5761098f85610a7d565b811561099e5761099e33610b38565b506001949350505050565b60008115806109b9575060075482115b156109c6575060006108ca565b600760018303815481106109d657fe5b6000918252602090912001546001600160a01b031692915050565b6001600160a01b03918216600090815260056020908152604080832093909416825291909152205490565b600082820183811015610a76576040805162461bcd60e51b815260206004820152601b60248201527f536166654d6174683a206164646974696f6e206f766572666c6f770000000000604482015290519081900360640190fd5b9392505050565b6001600160a01b03811660009081526008602052604090205461052457600780546001810182557fa66cc928b5edb82af9bd49922954155ab7b0942694bea4ce44661d9a8736c6880180546001600160a01b0319166001600160a01b039390931692831790555460009182526008602052604090912055565b6000610a7683836040518060400160405280601e81526020017f536166654d6174683a207375627472616374696f6e206f766572666c6f770000815250610cdd565b6001600160a01b03811660009081526008602052604090205415610524576001600160a01b0381166000908152600860205260409020546007546000199182019101808214610bf757600060078281548110610b9057fe5b600091825260209091200154600780546001600160a01b039092169250829185908110610bb957fe5b600091825260208083209190910180546001600160a01b0319166001600160a01b039485161790559290911681526008909152604090206001830190555b6007805480610c0257fe5b60008281526020808220830160001990810180546001600160a01b03191690559092019092556001600160a01b0385168252600890526040812055505050565b600082610c51575060006104c4565b82820282848281610c5e57fe5b0414610a765760405162461bcd60e51b8152600401808060200182810382526021815260200180610dda6021913960400191505060405180910390fd5b6000610a7683836040518060400160405280601a81526020017f536166654d6174683a206469766973696f6e206279207a65726f000000000000815250610d74565b60008184841115610d6c5760405162461bcd60e51b81526004018080602001828103825283818151815260200191508051906020019080838360005b83811015610d31578181015183820152602001610d19565b50505050905090810190601f168015610d5e5780820380516001836020036101000a031916815260200191505b509250505060405180910390fd5b505050900390565b60008183610dc35760405162461bcd60e51b8152602060048201818152835160248401528351909283926044909101919085019080838360008315610d31578181015183820152602001610d19565b506000838581610dcf57fe5b049594505050505056fe536166654d6174683a206d756c7469706c69636174696f6e206f766572666c6f77a26469706673582212209cbbd35c17ff8271c7be896c0c0f817437520649105c67bdca57c87a2912338664736f6c63430007000033",
  "linkReferences": {},
  "deployedLinkReferences": {}
}